:1000000012C024C023C022C021C020C01FC01EC0F7
:100010001DC01CC01BC01AC019C018C017C016C014
:1000200015C014C013C011241FBECFE5D4E0DEBF3D
:10003000CDBF11E0A0E6B0E0EEEFF9E002C0059020
:100040000D92A436B107D9F79BD1D7C4D9CF86B1C9
:10005000876886B93E9A089597B1987F97B997B106
:10006000982B97B9369A3699FECF24B135B1C9018C
:100070000895A89A00000000000000000000A89861
:100080000895A89A00000000000000000000000091
:1000900000000000000000000000A89808956F9282
:1000A0007F928F929F92AF92BF92CF92DF92EF9208
:1000B000FF920F931F93CF93DF934B015C013A01A3
:1000C00080E49CE90197F1F7CC24DD241FC0E12CEA
:1000D000F12C012D91E0192FC0E0D0E01695079585
:1000E000F794E794D801C70188219921AA21BB215F
:1000F0000097A105B10511F4BCDF01C0C2DF219654
:10010000C831D10559F70894C11CD11CC614D704B5
:10011000F0F280E49CE90197F1F7DF91CF911F9114
:100120000F91FF90EF90DF90CF90BF90AF909F9096
:100130008F907F906F9008958F929F92AF92BF9211
:10014000CF92DF92EF92FF920F931F93CF93DF93A3
:100150004B01E0E4FCE93197F1F75C01CC24DD24AC
:1001600026C0E12CF12C012D31E0132FC0E0D0E0AE
:1001700016950795F794E794F50180819181A28106
:10018000B3818E219F21A023B1230097A105B10542
:1001900011F46FDF01C075DF2196C831D10541F739
:1001A0000894C11CD11C84E090E0A80EB91EC814AC
:1001B000D904B8F280E49CE90197F1F7DF91CF917F
:1001C0001F910F91FF90EF90DF90CF90BF90AF9075
:1001D0009F908F900895EF92FF920F931F93A90124
:1001E000332722272E293F29402B512B982F872F49
:1001F000762F6627262B372B482B592BB901CA019E
:100200001F910F91FF90EF900895EF92FF920F933F
:100210001F93272F382F492F55273070790100E081
:1002200010E08701FF24EE249C01442755273070FD
:1002300040E050E0542F432F322F2227E22AF32AA6
:10024000042B152B7070CB01A0E0B0E0E82AF92A4E
:100250000A2B1B2BB701C8011F910F91FF90EF9044
:100260000895EF92FF920F931F93CF93DF93EC01CA
:10027000E880F9800A811B81FC0120E030E0AB01BD
:10028000415050400AC084819581A681B7818193F5
:100290009193A193B1932F5F3F4F2417350798F3A4
:1002A00061507040660F771F660F771FC60FD71F0C
:1002B000E882F9820A831B83DF91CF911F910F910E
:1002C000FF90EF9008958F929F92AF92BF92CF923E
:1002D000DF92EF92FF920F931F934B015C01FA01A3
:1002E000C72ED82EE92EFF242FEFC222DD24C50110
:1002F000AA27BB2790703FEF832299249C01249F5B
:10030000C001259F900D349F900D112464E670E08C
:1003100060D38B0120E030E0980111270027CE9EAA
:10032000C001CF9E900DDE9E900D112464E670E01A
:1003300050D380E090E0982F872F762F6627062BEA
:10034000172B282B392B8E9EC0018F9E900D9E9EC1
:10035000900D112464E670E03CD380E090E0062B21
:10036000172B282B392BB801C9011F910F91FF9032
:10037000EF90DF90CF90BF90AF909F908F900895B7
:100380002F923F924F925F926F927F928F929F92A5
:10039000AF92BF92CF92DF92EF92FF920F931F9393
:1003A000CF93DF9387E284BB11BA86B1876886B9A1
:1003B0003E9A71E0872E912C60E9662E61E0762EE0
:1003C00052E3452E512C4BE3242E312C80EA9FE042
:1003D0000197F1F7809B11C00894811C911C25E0C6
:1003E0008216910419F431E0832E912C88EB9BE066
:1003F000F3013197F1F70197D9F731E083169104B2
:1004000069F583E090E028DE8C0184E090E024DE52
:100410007C01029DC001039D900D129D900D112441
:100420006FEF73E0D6D2FB01EE0FFF1FEE0FFF1F41
:10043000E05AFF4F0081118122813381E49CC00189
:10044000E59C900DF49C900D11246FEF73E0C1D2E8
:10045000AB01C901B80137DFD8DEC6C082E088161B
:10046000910409F0A9C083E090E0F6DD8C0184E0FE
:1004700090E0F2DD7C01029DC001039D900D129D74
:10048000900D11246FEF73E0A4D2FB01EE0FFF1F5C
:10049000EE0FFF1FE05AFF4F6081718182819381CF
:1004A000B4DE45E050E0FBDDC70161E770E091D2CA
:1004B000EB01FB01EE0FFF1FE05BFE4F60817181DE
:1004C00080E090E06DD15B016C0120E030E04AE714
:1004D00055E4F4D17B018C0120E030E040E85FE39B
:1004E0002FD188231CF461E070E01EC0C801B70161
:1004F00020E03FEF4FE757E4DDD1181694F4C60132
:10050000B50120E030E040E251E4D8D11DD105C072
:10051000C3010197F1F76150704061157105C1F792
:1005200006C0C801B70110D1CB010197F1F760E017
:1005300070E080E090E045E050E0B1DDCC0FDD1FE1
:10054000C05BDE4F6881798180E090E029D15B015A
:100550006C0120E030E04AE755E4B0D17B018C012A
:1005600020E030E040E85FE3EBD088231CF461E05A
:1005700070E01EC0C801B70120E03FEF4FE757E42D
:1005800099D1181694F4C601B50120E030E040E29C
:1005900051E494D1D9D005C0C3010197F1F761505E
:1005A000704061157105C1F723C0C801B701CCD0F7
:1005B000CB010197F1F71CC023E082169104C1F42E
:1005C00084E090E049DD9C01249DC001259D900DB3
:1005D000349D900D11246FEF73E0FBD1AB016FEFF1
:1005E0007FEF8FEF90E06FDE45E050E058DDEECE1C
:1005F00034E08316910409F0E9CE83E090E02CDD2D
:100600008C0184E090E028DD9C01249DC001259DA3
:10061000900D349D900D11246FEF73E0DAD1AB0192
:100620006FEF7FEF8FEF90E04EDE45E050E037DD7B
:10063000C80161E770E0CDD1EB01FB01EE0FFF1FB8
:10064000E05BFE4F6081718180E090E0A9D05B01AA
:100650006C0120E030E04AE755E430D17B018C01A9
:1006600020E030E040E85FE36BD088231CF461E0D9
:1006700070E01EC0C801B70120E03FEF4FE757E42C
:1006800019D1181694F4C601B50120E030E040E21B
:1006900051E414D159D005C0C3010197F1F761505D
:1006A000704061157105C1F706C0C801B7014CD093
:1006B000CB010197F1F760E070E080E090E045E069
:1006C00050E0EDDCCC0FDD1FC05BDE4F688179812F
:1006D00080E090E065D05B016C0120E030E04AE70B
:1006E00055E4ECD07B018C0120E030E040E85FE392
:1006F00027D088231CF461E070E01EC0C801B70158
:1007000020E03FEF4FE757E4D5D0181694F4C60128
:10071000B50120E030E040E251E4D0D015D005C072
:10072000C3010197F1F76150704061157105C1F780
:100730004DCEC801B70108D0CB010197F1F746CEE5
:100740006CD008F481E0089594D088F09F5790F021
:10075000B92F9927B751A0F0D1F0660F771F881FE6
:10076000991F1AF0BA95C9F712C0B13081F09BD029
:10077000B1E0089598C0672F782F8827B85F39F0C7
:10078000B93FCCF3869577956795B395D9F73EF445
:1007900090958095709561957F4F8F4F9F4F0895ED
:1007A000E89409C097FB3EF490958095709561950B
:1007B0007F4F8F4F9F4F9923A9F0F92F96E9BB27C1
:1007C0009395F695879577956795B795F111F8CF3D
:1007D000FAF4BB0F11F460FF1BC06F5F7F4F8F4FA8
:1007E0009F4F16C0882311F096E911C0772321F09E
:1007F0009EE8872F762F05C0662371F096E8862F36
:1008000070E060E02AF09A95660F771F881FDAF78C
:10081000880F9695879597F90895990F0008550FB9
:10082000AA0BE0E8FEEF16161706E807F907C0F076
:1008300012161306E407F50798F0621B730B840B7E
:10084000950B39F40A2661F0232B242B252B21F458
:1008500008950A2609F4A140A6958FEF811D811DF8
:10086000089557FD9058440F551F59F05F3F71F0A0
:100870004795880F97FB991F61F09F3F79F0879507
:100880000895121613061406551FF2CF4695F1DF90
:1008900008C0161617061806991FF1CF8695710520
:1008A000610508940895E894BB2766277727CB0154
:1008B00097F90895B2DF08F48FEF08950BD078C050
:1008C00069D028F06ED018F0952309F05AC05FC0A7
:1008D0001124EACFC6DFA0F3959FD1F3950F50E026
:1008E000551F629FF001729FBB27F00DB11D639FE2
:1008F000AA27F00DB11DAA1F649F6627B00DA11D88
:10090000661F829F2227B00DA11D621F739FB00D2D
:10091000A11D621F839FA00D611D221F749F33279D
:10092000A00D611D231F849F600D211D822F762F36
:100930006A2F11249F5750408AF0E1F088234AF033
:10094000EE0FFF1FBB1F661F771F881F915050407F
:10095000A9F79E3F510570F014C0A6CF5F3FECF39E
:10096000983EDCF3869577956795B795F795E7956B
:100970009F5FC1F7FE2B880F911D9695879597F97C
:10098000089597F99F6780E870E060E008959FEF11
:1009900080EC089500240A94161617061806090616
:1009A000089500240A9412161306140605060895E5
:1009B000092E0394000C11F4882352F0BB0F40F46D
:1009C000BF2B11F460FF04C06F5F7F4F8F4F9F4FAD
:1009D0000895AA1BBB1B51E107C0AA1FBB1FA61786
:1009E000B70710F0A61BB70B881F991F5A95A9F7D8
:0E09F00080959095BC01CD010895F894FFCF3D
:1009FE000000FF00001AFF000033FF00004DFF0053
:100A0E000066FF000080FF000099FF0000B3FF00AA
:100A1E0000CCFF0000E6FF0000FFFF0000FFE60035
:100A2E0000FFCC0000FFB30000FF990000FF800024
:100A3E0000FF660000FF4D0000FF330000FF1A00AC
:100A4E0000FF00001AFF000033FF00004DFF000002
:100A5E0066FF000080FF000099FF0000B3FF00005A
:100A6E00CCFF0000E6FF0000FFFF0000FFE60000E5
:100A7E00FFCC0000FFB30000FF990000FF800000D4
:100A8E00FF660000FF4D0000FF330000FF1A00005C
:100A9E00FF000000FF001A00FF003300FF004D00B2
:100AAE00FF006600FF008000FF009900FF00B3000A
:100ABE00FF00CC00FF00E600FF00FF00E600FF0095
:100ACE00CC00FF00B300FF009900FF008000FF0084
:100ADE006600FF004D00FF003300FF001A00FF000C
:100AEE00E8035802F40190012C01C80064003200A2
:040AFE000A000B00DF
:00000001FF
