:100000000C9434000C943E000C943E000C943E0082
:100010000C943E000C943E000C943E000C943E0068
:100020000C943E000C943E000C943E000C943E0058
:100030000C943E000C943E000C943E000C943E0048
:100040000C943E000C943E000C943E000C943E0038
:100050000C943E000C943E000C943E000C943E0028
:100060000C943E000C943E0011241FBECFEFD8E04C
:10007000DEBFCDBF0E94B9000C94BA000C94000002
:10008000419A00000000000000000000419808951F
:10009000419A000000000000000000000000000085
:1000A0000000000000000000419808958F929F9288
:1000B000AF92BF92CF92DF92EF92FF920F931F9376
:1000C000CF93DF934B015C01CC24DD2428C0E12CCD
:1000D000F12C012D91E0192FC0E0D0E01695079585
:1000E000F794E794F50180819181A281B3818E21FB
:1000F0009F21A023B1230097A105B10519F40E9407
:10010000400002C00E9448002196C831D10531F755
:100110000894C11CD11C84E090E0A80EB91EC8143C
:10012000D904A8F2DF91CF911F910F91FF90EF902A
:10013000DF90CF90BF90AF909F908F900895EF92F7
:10014000FF920F931F93A901332722272E293F29BE
:10015000402B512B982F872F762F6627262B372B56
:10016000482B592BB901CA011F910F91FF90EF90B5
:080170000895FFCFF894FFCFC2
:00000001FF
